{
  "transactions": [
    {
      "hash": "0x28aa151ca712eca5780c2cae07c645e3299b962acf257898745ced18ba7c9154",
      "transactionType": "CALL",
      "contractName": null,
      "contractAddress": "0x779877A7B0D9E8603169DdbD7836e478b4624789",
      "function": "transferAndCall(address,uint256,bytes)",
      "arguments": [
        "0x9DdfaCa8183c41ad55329BdeeD9F6A8d53168B1B",
        "3000000000000000000",
        "0x8342d79c60ba67960bc292ec415e151b63c550983cc7d7ffadd39574c5bcbc72"
      ],
      "transaction": {
        "from": "0xEe88aB0914E5BFFBf8785Cd0837e78dfFBd09307",
        "to": "0x779877A7B0D9E8603169DdbD7836e478b4624789",
        "gas": "0x1c1ff",
        "value": "0x0",
        "input": "0x4000aea00000000000000000000000009ddfaca8183c41ad55329bdeed9f6a8d53168b1b00000000000000000000000000000000000000000000000029a2241af62c0000000000000000000000000000000000000000000000000000000000000000006000000000000000000000000000000000000000000000000000000000000000208342d79c60ba67960bc292ec415e151b63c550983cc7d7ffadd39574c5bcbc72",
        "nonce": "0x1b",
        "chainId": "0xaa36a7"
      },
      "additionalContracts": [],
      "isFixedGasLimit": false
    }
  ],
  "receipts": [
    {
      "status": "0x1",
      "cumulativeGasUsed": "0xb23208",
      "logs": [
        {
          "address": "0x779877A7B0D9E8603169DdbD7836e478b4624789",
          "topics": [
            "0xddf252ad1be2c89b69c2b068fc378daa952ba7f163c4a11628f55a4df523b3ef",
            "0x000000000000000000000000ee88ab0914e5bffbf8785cd0837e78dffbd09307",
            "0x0000000000000000000000009ddfaca8183c41ad55329bdeed9f6a8d53168b1b"
          ],
          "data": "0x00000000000000000000000000000000000000000000000029a2241af62c0000",
          "blockHash": "0x2b69f768bffc5a170a50658a36d96b5ce90d4d658923e0b817cc587f1bbc088e",
          "blockNumber": "0x76bede",
          "transactionHash": "0x28aa151ca712eca5780c2cae07c645e3299b962acf257898745ced18ba7c9154",
          "transactionIndex": "0xbe",
          "logIndex": "0xd8",
          "removed": false
        },
        {
          "address": "0x779877A7B0D9E8603169DdbD7836e478b4624789",
          "topics": [
            "0xe19260aff97b920c7df27010903aeb9c8d2be5d310a2c67824cf3f15396e4c16",
            "0x000000000000000000000000ee88ab0914e5bffbf8785cd0837e78dffbd09307",
            "0x0000000000000000000000009ddfaca8183c41ad55329bdeed9f6a8d53168b1b"
          ],
          "data": "0x00000000000000000000000000000000000000000000000029a2241af62c0000000000000000000000000000000000000000000000000000000000000000004000000000000000000000000000000000000000000000000000000000000000208342d79c60ba67960bc292ec415e151b63c550983cc7d7ffadd39574c5bcbc72",
          "blockHash": "0x2b69f768bffc5a170a50658a36d96b5ce90d4d658923e0b817cc587f1bbc088e",
          "blockNumber": "0x76bede",
          "transactionHash": "0x28aa151ca712eca5780c2cae07c645e3299b962acf257898745ced18ba7c9154",
          "transactionIndex": "0xbe",
          "logIndex": "0xd9",
          "removed": false
        },
        {
          "address": "0x9DdfaCa8183c41ad55329BdeeD9F6A8d53168B1B",
          "topics": [
            "0x1ced9348ff549fceab2ac57cd3a9de38edaaab274b725ee82c23e8fc8c4eec7a",
            "0x8342d79c60ba67960bc292ec415e151b63c550983cc7d7ffadd39574c5bcbc72"
          ],
          "data": "0x000000000000000000000000000000000000000000000000000000000000000000000000000000000000000000000000000000000000000029a2241af62c0000",
          "blockHash": "0x2b69f768bffc5a170a50658a36d96b5ce90d4d658923e0b817cc587f1bbc088e",
          "blockNumber": "0x76bede",
          "transactionHash": "0x28aa151ca712eca5780c2cae07c645e3299b962acf257898745ced18ba7c9154",
          "transactionIndex": "0xbe",
          "logIndex": "0xda",
          "removed": false
        }
      ],
      "logsBloom": "0x00000004000000000000000000000000000000000020000000000000020000000000000000000000000000000000000000000800000000000000000000000000000000000000000000000008000000000000000000000001000020000020000008000000000020000000000000000000000000000000000000000010000040000000000000080000000000010000800000000020000010800000000000000000000000000000000000000000010000000000000000000000000004000000000000000002000000000000000000000000000000000000000100000000000000000010000000000000800000000000000000000000000000000000000000000000",
      "type": "0x2",
      "transactionHash": "0x28aa151ca712eca5780c2cae07c645e3299b962acf257898745ced18ba7c9154",
      "transactionIndex": "0xbe",
      "blockHash": "0x2b69f768bffc5a170a50658a36d96b5ce90d4d658923e0b817cc587f1bbc088e",
      "blockNumber": "0x76bede",
      "gasUsed": "0x133b1",
      "effectiveGasPrice": "0x8743b6dfd",
      "from": "0xEe88aB0914E5BFFBf8785Cd0837e78dfFBd09307",
      "to": "0x779877A7B0D9E8603169DdbD7836e478b4624789",
      "contractAddress": null
    }
  ],
  "libraries": [],
  "pending": [],
  "returns": {},
  "timestamp": 1740479357,
  "chain": 11155111,
  "commit": "f31c7e4"
}